:020000040000FA
:100000000C9463000C948B000C948B000C948B006C
:100010000C948B000C948B000C948B000C948B0034
:100020000C948B000C948B000C948B000C948B0024
:100030000C948B000C948B000C948B000C948B0014
:100040000C942C050C948B000C94FA040C94D4049E
:100050000C948B000C948B000C948B000C948B00F4
:100060000C948B000C948B000000000024002700EF
:100070002A0000000000250028002B0000000000DE
:1000800023002600290004040404040404040202DA
:100090000202020203030303030301020408102007
:1000A0004080010204081020010204081020000012
:1000B0000008000201000003040700000000000027
:1000C00000008405710C11241FBECFEFD8E0DEBF05
:1000D000CDBF14E0A0E0B1E0E8EDFFE102C0059083
:1000E0000D92A837B107D9F725E0A8E7B4E001C021
:1000F0001D92A137B207E1F710E0C2E6D0E004C0DC
:100100002197FE010E94E70DC136D107C9F70E9471
:10011000C0050C94DF0F0C940000AF92BF92CF92F9
:10012000DF92EF92FF920F931F93CF93DF936C01B7
:100130007B018B01040F151FEB015E01AE18BF0898
:10014000C017D10759F06991D601ED91FC9101904A
:10015000F081E02DC6010995892B79F7C501DF9162
:10016000CF911F910F91FF90EF90DF90CF90BF90B4
:10017000AF900895FC01538D448D252F30E0842FDE
:1001800090E0821B930B541710F0CF9608950197BF
:100190000895FC01918D828D981761F0A28DAE0FAC
:1001A000BF2FB11D5D968C91928D9F5F9F73928F33
:1001B00090E008958FEF9FEF0895FC01918D828D5F
:1001C000981731F0828DE80FF11D858D90E008952C
:1001D0008FEF9FEF0895FC01918D228D892F90E084
:1001E000805C9F4F821B91098F73992708958CE93A
:1001F00094E00E94EB0021E0892B09F420E0822F9B
:10020000089580E090E0892B29F00E94F700811189
:100210000C9400000895FC01A48DA80FB92FB11D06
:10022000A35ABF4F2C91848D90E001968F7399272C
:10023000848FA689B7892C93A089B1898C9183700A
:1002400080648C93938D848D981306C00288F38903
:10025000E02D80818F7D80830895EF92FF920F9330
:100260001F93CF93DF93EC0181E0888F9B8D8C8D62
:1002700098131AC0E889F989808185FF15C09FB756
:10028000F894EE89FF896083E889F9898081837019
:10029000806480839FBF81E090E0DF91CF911F91C8
:1002A0000F91FF90EF900895F62E0B8D10E00F5FE9
:1002B0001F4F0F731127E02E8C8D8E110CC00FB6BF
:1002C00007FCFACFE889F989808185FFF5CFCE0157
:1002D0000E940B01F1CFEB8DEC0FFD2FF11DE35AC6
:1002E000FF4FF0829FB7F8940B8FEA89FB898081DA
:1002F0008062CFCFCF93DF93EC01888D8823B9F054
:10030000AA89BB89E889F9898C9185FD03C0808120
:1003100086FD0DC00FB607FCF7CF8C9185FFF2CF9D
:10032000808185FFEDCFCE010E940B01E9CFDF91E7
:10033000CF910895833081F028F4813099F0823094
:10034000A9F008958730A9F08830C9F08430B1F45D
:10035000809180008F7D03C0809180008F77809393
:100360008000089584B58F7784BD089584B58F7D0E
:10037000FBCF8091B0008F778093B000089580917B
:10038000B0008F7DF9CFCF93DF93282F30E0F901B4
:10039000E255FF4F8491F901E656FF4FD491F901E0
:1003A000EA57FF4FC491CC23A1F081110E949A011A
:1003B000EC2FF0E0EE0FFF1FE458FF4FA591B49132
:1003C000EC91ED2381E090E009F480E0DF91CF91A2
:1003D000089580E090E0FACF1F93CF93DF93282F0A
:1003E00030E0F901E255FF4F8491F901E656FF4FE5
:1003F000D491F901EA57FF4FC491CC23A9F0162FED
:1004000081110E949A01EC2FF0E0EE0FFF1FEE58D1
:10041000FF4FA591B4918FB7F894EC91111108C0DA
:10042000D095DE23DC938FBFDF91CF911F9108958C
:10043000DE2BF8CFCF93DF9390E0FC01E656FF4F21
:1004400024918A579F4FFC0184918823D1F090E03A
:10045000880F991FFC01E859FF4FA591B491FC0149
:10046000EE58FF4FC591D49161110EC09FB7F8941B
:100470008C91E22FE0958E238C932881E223E883F0
:100480009FBFDF91CF9108958FB7F894EC91E22B45
:10049000EC938FBFF6CF3FB7F89480917D04909195
:1004A0007E04A0917F04B091800426B5A89B05C06E
:1004B0002F3F19F00196A11DB11D3FBFBA2FA92FE3
:1004C000982F8827BC01CD01620F711D811D911DE0
:1004D00042E0660F771F881F991F4A95D1F708954C
:1004E0008F929F92AF92BF92CF92DF92EF92FF9244
:1004F0004B015C010E944B026B017C010E944B028C
:100500006C197D098E099F09683E7340810591052C
:10051000A8F321E0821A9108A108B10888EEC80E5C
:1005200083E0D81EE11CF11C81149104A104B104E4
:1005300029F7FF90EF90DF90CF90BF90AF909F9002
:100540008F900895FC0101900020E9F73197AF01E9
:10055000481B590BBC018CE994E00C948D0087E298
:1005600091E00C94A202CF93DF93FC01448155816A
:10057000608171818CE994E00E948D00EC010E9401
:10058000AF028C0F9D1FDF91CF9108958F929F92A4
:10059000AF92BF92CF92DF92EF92FF920F931F9391
:1005A000CF93DF93CDB7DEB7A1970FB6F894DEBF38
:1005B0000FBECDBF6C01990FEE08FF08F7FE45C0D6
:1005C0006DE28CE994E00E942D018C0122273327F3
:1005D000A9012C193D094E095F0919A2CE01819686
:1005E0007C019AE0892E912CA12CB12CCA01B90171
:1005F000A50194010E948E0D605DF70162937F0159
:10060000211531054105510589F790E080E03097CB
:1006100019F0CF010E94A202080F191F0E94AF0219
:10062000800F911FA1960FB6F894DEBF0FBECDBF0D
:10063000DF91CF911F910F91FF90EF90DF90CF90BE
:10064000BF90AF909F908F900895A701960119A237
:100650008E010F5D1F4F8AE0C82ED12CE12CF12CAA
:10066000CA01B901A70196010E948E0D605DF801D3
:1006700062938F01211531054105510589F73097A6
:1006800029F0CF010E94A2028C01C8CF10E000E047
:10069000C5CF0C94A202CF93DF930E94A202EC017B
:1006A0000E94AF028C0F9D1FDF91CF91089561E0F2
:1006B00089E00E94EC0110926C0510926B0510927B
:1006C0005F0510925E05109252051092510510922E
:1006D00045051092440568EE73E080E090E00E94CA
:1006E00070028AE291E00E944B0364E670E080E0D1
:1006F00090E00E94700286E391E00E944B038AE43E
:1007000091E00E9449038091990490919A040E947B
:10071000C60286E691E00E9449038091950490917B
:1007200096040E94C60281E891E00E9449038091EC
:100730009304909194040E94C6028FE991E00E9474
:10074000490380919104909192040E94C6028CEB1F
:1007500091E00E94490380918F04909190040E943F
:10076000C60280910801909109012091990430916D
:100770009A04821B930B9093090180930801809146
:100780000601909107012091950430919604821BF7
:10079000930B90930701809306018091040190913F
:1007A00005012091930430919404821B930B909344
:1007B0000501809304018091020190910301209131
:1007C000910430919204821B930B909303018093C8
:1007D0000201809100019091010120918F043091DC
:1007E0009004821B930B909301018093000110925F
:1007F0009A04109299041092960410929504109203
:100800009404109293041092920410929104109206
:10081000900410928F0410929B0481E080930A014F
:10082000109298041092970410928E0410928D04E6
:1008300060E089E00E94EC0168EE73E080E090E007
:100840000C947002FC0180819181009711F00C944E
:10085000890E08950F931F93CF93DF93EC01888146
:100860009981009759F02A813B812617370730F08C
:1008700081E0DF91CF911F910F9108958B016F5F00
:100880007F4F0E94120F009759F0998388831B8332
:100890000A832C813D81232B59F7FC011082E8CF7C
:1008A00080E0E7CFEF92FF920F931F93CF93DF93F8
:1008B000EC01FB01E080F180E114F10411F104810D
:1008C000158101151105A9F08C819D81080F191F53
:1008D000B801CE010E942A04882399F02881398129
:1008E0008C819D81B701820F931F0E94D80F1D83B9
:1008F0000C83CE01DF91CF911F910F91FF90EF906C
:10090000089588819981009711F00E94890E1982BB
:1009100018821D821C821B821A82EBCFEF92FF92FB
:100920000F931F93CF93DF93EC017B018A01BA01F0
:100930000E942A0428813981811114C021153105B2
:1009400019F0C9010E94890E198218821D821C8229
:100950001B821A82CE01DF91CF911F910F91FF90E0
:10096000EF9008951D830C83B701C9010E94D80F31
:10097000F1CFFB0101900020E9F73197AF01461B51
:10098000570B0C948E04FC01118210821382128288
:1009900015821482FB0101900020E9F73197AF0125
:1009A000461B570B0C948E041F920F920FB60F929A
:1009B00011242F933F934F935F936F937F938F9364
:1009C0009F93AF93BF93EF93FF938CE994E00E94C2
:1009D0000B01FF91EF91BF91AF919F918F917F910B
:1009E0006F915F914F913F912F910F900FBE0F909C
:1009F0001F9018951F920F920FB60F9211242F93EC
:100A00008F939F93EF93FF93E091AC04F091AD042B
:100A10008081E091B204F091B30482FD1BC090810B
:100A20008091B5048F5F8F732091B604821741F0D7
:100A3000E091B504F0E0E456FB4F958F8093B50448
:100A4000FF91EF919F918F912F910F900FBE0F907B
:100A50001F9018958081F4CF1F920F920FB60F92BE
:100A600011242F933F938F939F93AF93BF938091C4
:100A7000790490917A04A0917B04B0917C04309128
:100A8000780423E0230F2D3758F50196A11DB11DE1
:100A9000209378048093790490937A04A0937B0444
:100AA000B0937C0480917D0490917E04A0917F049A
:100AB000B09180040196A11DB11D80937D04909397
:100AC0007E04A0937F04B0938004BF91AF919F9167
:100AD0008F913F912F910F900FBE0F901F901895FF
:100AE00026E8230F0296A11DB11DD2CFFC01128270
:100AF0001182148213821682158250E040E069E26E
:100B000071E001960C948E04ECE9F4E013821282F9
:100B100088EE93E0A0E0B0E084839583A683B7835A
:100B200089E191E09183808385EC90E095878487CB
:100B300084EC90E09787868780EC90E0918B808BA7
:100B400081EC90E0938B828B82EC90E0958B848B90
:100B500086EC90E0978B868B118E128E138E148EFE
:100B600080E695E00E94760583E595E00E94760593
:100B700086E495E00E94760589E395E00C9476057D
:100B8000CF93DF9300D000D000D0CDB7DEB77894FC
:100B900084B5826084BD84B5816084BD85B5826082
:100BA00085BD85B5816085BD80916E008160809333
:100BB0006E0010928100809181008260809381009C
:100BC00080918100816080938100809180008160AC
:100BD000809380008091B10084608093B100809107
:100BE000B00081608093B00080917A00846080932F
:100BF0007A0080917A00826080937A0080917A00F6
:100C0000816080937A0080917A00806880937A0076
:100C10001092C10081E38093600568ED71E081E688
:100C200095E00E94B9048FE090E09093680580936E
:100C300067058EE190E090936A05809369051092B4
:100C40006C0510926B0582E38093530562EE71E0B0
:100C500084E595E00E94B9048AE090E090935B05FA
:100C600080935A0502E310E010935D0500935C0544
:100C700010925F0510925E0583E38093460569EE4E
:100C800071E087E495E00E94B90485E090E09093DC
:100C90004E0580934D0584E690E090935005809337
:100CA0004F05109252051092510584E38093390547
:100CB00062EF71E08AE395E00E94B9041093410568
:100CC0000093400584E190E09093430580934205B2
:100CD0001092450510924405E091AC04F091AD04EA
:100CE00082E08083E091A804F091A9041082E09151
:100CF000AA04F091AB048FEC80831092B404E091CD
:100D0000B004F091B10486E08083E091AE04F091EC
:100D1000AF04808180618083E091AE04F091AF04E4
:100D2000808188608083E091AE04F091AF0480817F
:100D300080688083E091AE04F091AF0480818F7D64
:100D4000808361E089E00E941A0260E082E00E94F4
:100D50001A0260E083E00E941A0260E084E00E94D0
:100D60001A0260E085E00E941A0260E086E00E94BC
:100D70001A0260E087E00E941A0261E088E00E94A7
:100D80001A0292E0C92ED12CE12CF12C24E1222E62
:100D9000312C3AE0432E512C45E0642E712C11E0A9
:100DA0000BEF80E0882E80E0982E80910A019091D0
:100DB0009B04911164C18823E1F08BEF91E00E94C4
:100DC0004B0389E092E00E944B0388E192E00E948D
:100DD0004B0387E292E00E944B0386E392E00E947D
:100DE0004B0386E492E00E944B030E94AF021092F4
:100DF0000A0182E00E94C3010197E1F48091990405
:100E000090919A04019690939A048093990485E5B1
:100E100092E00E944B03809197049091980405966C
:100E2000909398048093970468EE73E080E090E0DC
:100E30000E94700283E00E94C3010197E1F4809157
:100E4000950490919604019690939604809395044E
:100E500083E692E00E944B0380919704909198045E
:100E60000A96909398048093970468EE73E080E06C
:100E700090E00E94700284E00E94C3010197E1F4B7
:100E8000809193049091940401969093940480939C
:100E9000930482E792E00E944B0380919704909123
:100EA00098044496909398048093970468EE73E0B6
:100EB00080E090E00E94700285E00E94C3010197EB
:100EC000E1F48091910490919204019690939204A0
:100ED0008093910481E892E00E944B0380919704F3
:100EE00090919804C296909398048093970468EE2A
:100EF00073E080E090E00E94700286E00E94C301EF
:100F00000197E9F480918F04909190040196909359
:100F1000900480938F0480E992E00E944B038091BB
:100F20009704909198048C599F4F909398048093C4
:100F3000970468EE73E080E090E00E94700287E022
:100F40000E94C301019709F08EC08091970490918F
:100F50009804181619060CF086C08091080190912B
:100F600009012091990430919A04820F931F909364
:100F70000901809308018091060190910701209159
:100F8000950430919604820F931F909307018093EC
:100F90000601809104019091050120919304309104
:100FA0009404820F931F9093050180930401809114
:100FB0000201909103012091910430919204820FDB
:100FC000931F9093030180930201809100019091FF
:100FD000010120918F0430919004820F931F909310
:100FE00001018093000180EA92E00E944903809110
:100FF0000801909109010E94C60282EB92E00E94D2
:10100000490380910601909107010E94C60283EC7A
:1010100092E00E94490380910401909105010E9491
:10102000C60287ED92E00E944903809102019091EF
:1010300003010E94C6028AEE92E00E944903809159
:101040000001909101010E94C60210939B0410932D
:101050000A0160ED77E080E090E00E9470020E945B
:10106000AF020E94AF028114910409F49ECE0E9447
:10107000F700882309F493CE0E94000090CE8823C5
:1010800009F452C06CEF72E0CE0101960E94C304D5
:1010900061E675E0CE0101960E9452040E94B302FF
:1010A000CE0101960E9422046FEF72E0CE010196FC
:1010B0000E94C30464E575E0CE0101960E945204CB
:1010C0000E94B302CE0101960E94220462E073E006
:1010D000CE0101960E94C30467E475E0CE0101963B
:1010E0000E9452040E94B302CE0101960E94220483
:1010F00065E073E0CE0101960E94C3046AE375E0E7
:10110000CE0101960E9452040E94B302CE010196C4
:101110000E94220488E093E00E944B0380E193E068
:101120000E944B0310920A0182E00E94C3010197C2
:10113000E9F520916B0530916C05809167059091E0
:1011400068052817390794F580918D0490918E04D5
:101150004091970450919804841795073CF560914D
:10116000690570916A05860F971F48175907C4F0E3
:1011700090938E0480938D042F5F3F4F30936C05C6
:1011800020936B0588E193E00E944B038BE293E090
:101190000E94490380918D0490918E040E94C602A2
:1011A00068EE73E080E090E00E94700283E00E94AD
:1011B000C3010197E9F520915E0530915F058091AB
:1011C0005A0590915B052817390794F580918D0495
:1011D00090918E044091970450919804841795073C
:1011E0003CF560915C0570915D05860F971F48176F
:1011F0005907C4F090938E0480938D042F5F3F4F66
:1012000030935F0520935E0584E393E00E944B03D7
:101210008BE293E00E94490380918D0490918E04AB
:101220000E94C60268EE73E080E090E00E947002C7
:1012300084E00E94C3010197E9F5209151053091A6
:10124000520580914D0590914E052817390794F568
:1012500080918D0490918E04409197045091980450
:10126000841795073CF560914F0570915005860FE6
:10127000971F48175907C4F090938E0480938D04EC
:101280002F5F3F4F309352052093510585E493E043
:101290000E944B038BE293E00E94490380918D04EE
:1012A00090918E040E94C60268EE73E080E090E0A8
:1012B0000E94700285E00E94C3010197E9F5209128
:1012C00044053091450580914005909141052817CE
:1012D000390794F580918D0490918E044091970484
:1012E00050919804841795073CF5609142057091E0
:1012F0004305860F971F48175907C4F090938E0433
:1013000080938D042F5F3F4F309345052093440514
:1013100087E593E00E944B038BE293E00E94490330
:1013200080918D0490918E040E94C60268EE73E055
:1013300080E090E00E94700286E00E94C301019765
:10134000D9F50E94CD0CA70196010E94250D6130B0
:10135000710581059105C9F589E693E00E944B036B
:101360000E94570310928204109281041092840408
:1013700010928304109286041092850410928804BF
:101380001092870410928A041092890468EE73E028
:1013900080E090E00E9470021092980410929704EE
:1013A00010928E0410928D0410929B0410930A01E7
:1013B0000E94AF020E94AF0287E00E94C301019722
:1013C00009F051CE0E9457034ACE61E088E00E94A6
:1013D000EC0168EE73E080E090E00E94700287E725
:1013E00093E00E944B0380916705909168052091DE
:1013F0006B0530916C05821B930B9093680580936D
:10140000670580915A0590915B0520915E053091AA
:101410005F05821B930B90935B0580935A05809127
:101420004D0590914E052091510530915205821B3A
:10143000930B90934E0580934D05809140059091BC
:1014400041052091440530914505821B930B9093F3
:1014500041058093400510926C0510926B05109227
:101460005F0510925E051092520510925105109280
:101470004505109244058FE893E00E94490380914E
:101480006705909168050E94C6028FE993E00E946B
:10149000490380915A0590915B050E94C6028FEA2C
:1014A00093E00E94490380914D0590914E050E9462
:1014B000C6028FEB93E00E94490380914005909112
:1014C00041050E94C6028091970490919804209152
:1014D0008D0430918E04821B930B90938C04809327
:1014E0008B048FEC93E00E94490380918B049091D0
:1014F0008C040E94C602E0918B04F0918C04CF0111
:1015000064E670E00E94BF0D20910001309101015E
:10151000261737070CF47DC170938A046093890401
:10152000261B370B30930101209300012CE9260381
:10153000C001279F900D1124E80FF91FF0938C0430
:10154000E0938B04E0918B04F0918C04CF0162E373
:1015500070E00E94BF0D2091020130910301261717
:1015600037070CF46BC17093880460938704261BC3
:10157000370B30930301209302012EEC2603C001A8
:10158000279F900D1124E80FF91FF0938C04E0932E
:101590008B04E0918B04F0918C04CF01B1010E9487
:1015A000BF0D2091040130910501261737070CF477
:1015B0005AC17093860460938504261B370B3093C1
:1015C0000501209304012CEE2603C001279F900DF6
:1015D0001124E80FF91FF0938C04E0938B04E09141
:1015E0008B04F0918C04CF01B2010E94BF0D2091B9
:1015F000060130910701261737070CF449C1709393
:10160000840460938304261B370B309307012093D7
:10161000060126EF2603C001279F900D1124E80F35
:10162000F91FF0938C04E0938B04E0918B04F0910C
:101630008C04CF01B3010E94BF0D209108013091AD
:101640000901261737070CF438C1709382046093A0
:101650008104261B370B30930901209308010603F0
:10166000C001079F900D1124E80FF91FF0938C041F
:10167000E0938B0480918B0490918C0418161906CA
:101680000CF07CC0E0919904F0919A0420918104BF
:10169000309182042E1B3F0B80910801909109012B
:1016A000820F931F9093090180930801A0919504E4
:1016B000B091960420918304309184042A1B3B0B43
:1016C0008091060190910701820F931F909307016B
:1016D00080930601A0909304B09094042091850417
:1016E000309186042A193B098091040190910501EB
:1016F000820F931F909305018093040160919104E0
:10170000709192042091870430918804261B370B36
:101710008091020190910301820F931F9093030126
:101720008093020140918F0450919004209189048C
:1017300030918A04241B350B8091000190910101A6
:10174000820F931F9093010180930001F093820414
:10175000E0938104B0938404A0938304B092860440
:10176000A0928504709388046093870450938A0440
:10177000409389048BED93E00E944B0310929A04EE
:101780001092990410929604109295041092940469
:10179000109293041092920410929104109290046B
:1017A00010928F0483EF93E00E944903809181049B
:1017B000909182040E94C6028DE094E00E94490349
:1017C00080918304909184040E94C60286E294E092
:1017D0000E94490380918504909186040E94C6026C
:1017E00082E494E00E9449038091870490918804E8
:1017F0000E94C6028DE594E00E944903809189040D
:1018000090918A040E94C60260E088E00E94EC0188
:10181000A9CD30938A04209389044CE94203C00186
:10182000439F900D1124E80FF91FF0938C04E0936F
:101830008B04109201011092000184CE3093880431
:10184000209387044EEC4203C001439F900D112466
:10185000E80FF91FF0938C04E0938B0410920301BE
:101860001092020196CE30938604209385044CEEAC
:101870004203C001439F900D1124E80FF91FF0931C
:101880008C04E0938B041092050110920401A7CE02
:10189000309384042093830446EF4203C001439FA6
:1018A000900D1124E80FF91FF0938C04E0938B0442
:1018B0001092070110920601B8CE30938204209353
:1018C00081040203C001039F900D1124E80FF91F4A
:1018D000F0938C04E0938B0410920901109208019C
:1018E000C9CE8AE395E00E94220487E495E00E9435
:1018F000220484E595E00E94220481E695E00C94A0
:1019000022048F929F92AF92BF92CF92DF92EF927A
:10191000FF92CF93DF93EC01688179818A819B816B
:10192000611571058105910521F464E279ED8BE57E
:1019300097E02DE133EF41E050E00E94250D490191
:101940005A019B01AC01A7EAB1E40E94440D6B016E
:101950007C01ACEEB4EFA50194010E94520DC60EBD
:10196000D71EE81EF91EF7FE06C081E0C81AD1088E
:10197000E10880E8F80AC882D982EA82FB82C701BE
:10198000B6019F77DF91CF91FF90EF90DF90CF90DE
:10199000BF90AF909F908F9008958F929F92AF923B
:1019A000BF92CF92DF92EF92FF9260910B01709104
:1019B0000C0180910D0190910E0161157105810559
:1019C000910521F464E279ED8BE597E02DE133EFA9
:1019D00041E050E00E94250D49015A019B01AC01F4
:1019E000A7EAB1E40E94440D6B017C01ACEEB4EFB8
:1019F000A50194010E94520DC60ED71EE81EF91EC5
:101A0000F7FE06C081E0C81AD108E10880E8F80AAC
:101A1000C0920B01D0920C01E0920D01F0920E01E8
:101A2000C701B6019F77FF90EF90DF90CF90BF90F6
:101A3000AF909F908F90089560930B0170930C016D
:101A400080930D0190930E010895052E97FB1EF4CF
:101A500000940E943C0D57FD07D00E948E0D07FC9C
:101A600003D04EF40C943C0D509540953095219543
:101A70003F4F4F4F5F4F08959095809570956195BA
:101A80007F4F8F4F9F4F08950E94B00DA59F900DDF
:101A9000B49F900DA49F800D911D11240895B7FF50
:101AA0000C94440D0E94440D821B930B08952F92B9
:101AB0003F924F925F926F927F928F929F92AF92DE
:101AC000BF92CF92DF92EF92FF920F931F93CF932B
:101AD000DF93CDB7DEB7CA1BDB0B0FB6F894DEBFC2
:101AE0000FBECDBF09942A88398848885F846E84E8
:101AF0007D848C849B84AA84B984C884DF80EE8032
:101B0000FD800C811B81AA81B981CE0FD11D0FB63A
:101B1000F894DEBF0FBECDBFED010895A1E21A2EED
:101B2000AA1BBB1BFD010DC0AA1FBB1FEE1FFF1F81
:101B3000A217B307E407F50720F0A21BB30BE40BD1
:101B4000F50B661F771F881F991F1A9469F7609518
:101B50007095809590959B01AC01BD01CF010895D2
:101B6000A29FB001B39FC001A39F700D811D1124DE
:101B7000911DB29F700D811D1124911D089597FB39
:101B8000072E16F4009407D077FD09D00E94D30DDC
:101B900007FC05D03EF4909581959F4F0895709570
:101BA00061957F4F0895AA1BBB1B51E107C0AA1F77
:101BB000BB1FA617B70710F0A61BB70B881F991FEE
:101BC0005A95A9F780959095BC01CD010895EE0F27
:101BD000FF1F0590F491E02D09940F931F93CF936D
:101BE000DF938230910510F482E090E0E0916F0580
:101BF000F091700530E020E0B0E0A0E0309799F47B
:101C00002115310509F44AC0281B390B2430310550
:101C1000D8F58A819B816115710589F1FB01938358
:101C20008283FE0111C040815181028113814817D6
:101C30005907E0F04817590799F4109761F0129688
:101C40000C93129713961C933296CF01DF91CF918C
:101C50001F910F91089500936F0510937005F4CFB5
:101C60002115310551F04217530738F0A901DB0166
:101C70009A01BD01DF01F801C1CFEF01F9CF9093C7
:101C8000700580936F05CDCFFE01E20FF31F8193A6
:101C900091932250310939832883D7CF20916D0544
:101CA00030916E05232B41F42091110130911201E6
:101CB00030936E0520936D0520910F013091100136
:101CC0002115310541F42DB73EB7409113015091D4
:101CD0001401241B350BE0916D05F0916E05E217A0
:101CE000F307A0F42E1B3F0B2817390778F0AC013F
:101CF0004E5F5F4F2417350748F04E0F5F1F50931C
:101D00006E0540936D05819391939FCFF0E0E0E0E5
:101D10009CCFCF93DF930097E9F0FC0132971382B9
:101D20001282A0916F05B0917005ED0130E020E0C6
:101D30001097A1F420813181820F931F20916D05AE
:101D400030916E052817390709F061C0F0936E05D0
:101D5000E0936D05DF91CF910895EA01CE17DF077B
:101D6000E8F54A815B819E0141155105B1F7E90112
:101D7000FB83EA8349915991C40FD51FEC17FD07E6
:101D800061F4808191810296840F951FE901998306
:101D90008883828193819B838A83F0E0E0E01296BE
:101DA0008D919C9113970097B9F52D913C911197C6
:101DB000CD010296820F931F20916D0530916E0523
:101DC0002817390739F6309751F51092700510929F
:101DD0006F05B0936E05A0936D05BCCFD383C2830E
:101DE00040815181840F951FC817D90761F44E5F58
:101DF0005F4F88819981480F591F518340838A81A1
:101E00009B81938382832115310509F0B0CFF09334
:101E10007005E0936F059ECFFD01DC01C0CF1382FA
:101E20001282D7CFB0E0A0E0E8E1FFE00C94590DBA
:101E30008C01009751F4CB010E94ED0D8C01C8017B
:101E4000CDB7DEB7E0E10C94750DFC01E60FF71F8E
:101E50009C0122503109E217F30708F49DC0D90113
:101E6000CD91DC911197C617D70798F0C530D105F1
:101E700030F3CE0104978617970708F3C61BD70BDC
:101E80002297C193D1936D937C93CF010E94890EC9
:101E9000D6CF5B01AC1ABD0A4C018C0E9D1EA091E1
:101EA0006F05B0917005512C412CF12CE12C10974D
:101EB00031F580916D0590916E058815990509F0B1
:101EC0005CC04616570608F058C080910F019091EB
:101ED0001001009741F48DB79EB7409113015091C6
:101EE0001401841B950BE817F90708F055C0F0930F
:101EF0006E05E0936D05F90171836083A0CF8D912C
:101F00009C91119712966C90129713967C90139750
:101F1000A815B90559F56C0142E0C40ED11CCA14CC
:101F2000DB0420F1AC014A195B09DA01129615971E
:101F300080F06282738251834083D9016D937C93D8
:101F4000E114F10471F0D7011396FC93EE9312970C
:101F500076CF22968C0F9D1FF90191838083F30128
:101F6000EFCFF0937005E0936F0569CF48165906DF
:101F700008F42C017D01D3019ACFCB010E94ED0D15
:101F80007C01009749F0AE01B8010E94CF0FC80153
:101F90000E94890E870153CF10E000E050CFFB0173
:101FA000DC0102C001900D9241505040D8F70895D5
:101FB000FB01DC0101900D920020E1F7089510E093
:101FC000C2E6D0E004C0FE010E94E70D2196C336B0
:101FD000D107C9F7F894FFCF010002000400060002
:101FE00008000101000000000071058000000000F1
:101FF000002D018D00BA007A01EB00C900DD000D53
:102000000A0052657365746C656E64692E005061D8
:1020100072612069616465206564696C69796F72B9
:102020002E0049616465206564696C656E20626597
:10203000736C696B207361796973693A2000496137
:102040006465206564696C656E206F6E6C756B20CD
:102050007361796973693A20004961646520656438
:10206000696C656E207969726D696C696B2073614A
:10207000796973693A200049616465206564696C17
:10208000656E20656C6C696C696B2073617969732E
:10209000693A200049616465206564696C656E2059
:1020A00079757A6C756B207361796973693A200070
:1020B0004B6F70756B6C656D650059696B616D6117
:1020C000004B7572756C616D610043696C616C6188
:1020D0006D6100312E4275746F6E3A203520544C7C
:1020E00000322E4275746F6E3A20313020544C000D
:1020F000332E4275746F6E3A20323020544C0034C7
:102100002E4275746F6E3A20353020544C00352EB7
:102110004275746F6E3A2031303020544C00362EA8
:102120004275746F6E3A2042697469730035207489
:102130006C20656B6C656E64692E00313020746CA8
:1021400020656B6C656E64692E00323020746C20E3
:10215000656B6C656E64692E00353020746C20658B
:102160006B6C656E64692E0031303020746C2065B4
:102170006B6C656E64692E004B61736164616B69A1
:10218000204265736C696B3A20004B617361646136
:102190006B69204F6E6C756B3A20004B6173616404
:1021A000616B69205969726D696C696B3A20004BEB
:1021B00061736164616B6920456C6C696C696B3A31
:1021C00020004B61736164616B692059757A6C758D
:1021D0006B3A2000312E00322E00332E00342E00B8
:1021E000352E426974697300362E5265736574002A
:1021F0004B6F70756B6C656D6520736563696C649E
:10220000692E00546F706C616D3A200059696B61E2
:102210006E6D6120736563696C64692E004B757225
:10222000756C616D6120736563696C64692E004330
:10223000696C616C616D6120736563696C64692EA2
:1022400000506172612073696B697374692E005468
:10225000756D2069736C656D6C6572207579677535
:102260006C616E64692E0048697A6D657420312056
:10227000416465743A200048697A6D6574203220A3
:10228000416465743A200048697A6D657420332092
:10229000416465743A200048697A6D657420342081
:1022A000416465743A2000506172612075737475E1
:1022B0003A20005061726120696164657369207918
:1022C0006170696C69796F722E2E00566572696C47
:1022D0006563656B206265736C696B2073617969F6
:1022E00073693A2000566572696C6563656B206F8F
:1022F0006E6C756B207361796973693A200056655D
:1023000072696C6563656B207969726D696C696B64
:10231000207361796973693A2000566572696C654A
:1023200063656B20656C6C696C696B20736179699E
:1023300073693A2000566572696C6563656B207934
:10234000757A6C756B207361796973693A20000046
:107E0000112484B714BE81FFF0D085E080938100F7
:107E100082E08093C00088E18093C10086E0809377
:107E2000C20080E18093C4008EE0C9D0259A86E02C
:107E300020E33CEF91E0309385002093840096BBD3
:107E4000B09BFECF1D9AA8958150A9F7CC24DD24C4
:107E500088248394B5E0AB2EA1E19A2EF3E0BF2EE7
:107E6000A2D0813461F49FD0082FAFD0023811F036
:107E7000013811F484E001C083E08DD089C08234E0
:107E800011F484E103C0853419F485E0A6D080C0E4
:107E9000853579F488D0E82EFF2485D0082F10E0AE
:107EA000102F00270E291F29000F111F8ED06801E7
:107EB0006FC0863521F484E090D080E0DECF843638
:107EC00009F040C070D06FD0082F6DD080E0C81688
:107ED00080E7D80618F4F601B7BEE895C0E0D1E017
:107EE00062D089930C17E1F7F0E0CF16F0E7DF06D8
:107EF00018F0F601B7BEE89568D007B600FCFDCFD4
:107F0000A601A0E0B1E02C9130E011968C91119780
:107F100090E0982F8827822B932B1296FA010C0160
:107F200087BEE89511244E5F5F4FF1E0A038BF0790
:107F300051F7F601A7BEE89507B600FCFDCF97BE46
:107F4000E89526C08437B1F42ED02DD0F82E2BD052
:107F50003CD0F601EF2C8F010F5F1F4F84911BD097
:107F6000EA94F801C1F70894C11CD11CFA94CF0C13
:107F7000D11C0EC0853739F428D08EE10CD085E9AC
:107F80000AD08FE07ACF813511F488E018D01DD067
:107F900080E101D065CF982F8091C00085FFFCCF94
:107FA0009093C60008958091C00087FFFCCF809118
:107FB000C00084FD01C0A8958091C6000895E0E648
:107FC000F0E098E1908380830895EDDF803219F02E
:107FD00088E0F5DFFFCF84E1DECF1F93182FE3DFCA
:107FE0001150E9F7F2DF1F91089580E0E8DFEE27F6
:047FF000FF270994CA
:027FFE00040479
:00000001FF
